:100000000C942A000C943C000C943C000C943C0092
:100010000C943C000C943C000C943C000C943C0070
:100020000C943C000C943C000C943C000C943C0060
:100030000C943C000C943C000C943C000C943C0050
:100040000C9465000C943C000C943C000C943C0017
:100050000C943C0011241FBECFE5D8E0DEBFCDBF1D
:1000600020E0A0E6B0E001C01D92A136B207E1F7A2
:100070000E943E000C946E020C940000CF93DF931C
:10008000CDB7DEB787E390E02FEFFC0120838AE352
:1000900090E0FC01108287E290E020E2FC012083E6
:1000A00086E290E02EECFC01208380E490E0FC01ED
:1000B000108289E290E023E3FC0120838AE290E051
:1000C00028E0FC0120837894FFCF1F920F920FB697
:1000D0000F9211242F933F934F935F936F937F93CE
:1000E0008F939F93AF93BF93EF93FF93CF93DF9340
:1000F000CDB7DEB7A397DEBFCDBF85E290E0DC01D0
:100100008C9189838091600099819817D9F08981B9
:100110008093600000008BE290E0FC018081882FDA
:1001200090E080729927892BB1F38CE290E02091C6
:100130006000DC012C932091600088E390E0209522
:10014000FC01208380E090E0A8E4B2E48A839B83F2
:10015000AC83BD8320E030E04AEF54E46A817B81C8
:100160008C819D810E94D9016C8B7D8B8E8B9F8BA6
:100170008C899D89AE89BF898E839F83A887B98723
:1001800020E030E040E85FE36E817F8188859985DB
:100190000E94530188232CF481E090E09B878A879A
:1001A00054C020E03FEF4FE757E46E817F818885A0
:1001B00099850E94D4011816D4F520E030E040E281
:1001C00051E46A817B818C819D810E94D901688F75
:1001D000798F8A8F9B8F888D998DAA8DBB8D888B07
:1001E000998BAA8BBB8B688979898A899B890E94A4
:1001F00058016C8F7D8F8E8F9F8FAC8DBD8DBB878F
:10020000AA8710C088EC90E09D878C878C859D859F
:100210000197F1F79D878C8700008A859B85019760
:100220009B878A878A859B85892B61F719C06E8198
:100230007F81888599850E94580168A379A38AA344
:100240009BA3E8A1F9A1FB87EA878A859B859F8705
:100250008E878E859F850197F1F79F878E87000097
:1002600086E290E0DC012C9186E290E02064FC01C3
:1002700020830000A3960FB6F894DEBF0FBECDBF5B
:10028000DF91CF91FF91EF91BF91AF919F918F91AE
:100290007F916F915F914F913F912F910F900FBE82
:1002A0000F901F9018950E94870108F481E008952F
:1002B0000E94B30188F09F5798F0B92F9927B75142
:1002C000B0F0E1F0660F771F881F991F1AF0BA95FA
:1002D000C9F714C0B13091F00E94CD01B1E008958A
:1002E0000C94CD01672F782F8827B85F39F0B93F7C
:1002F000CCF3869577956795B395D9F73EF49095AD
:100300008095709561957F4F8F4F9F4F0895990FFE
:100310000008550FAA0BE0E8FEEF16161706E807CF
:10032000F907C0F012161306E407F50798F0621BF0
:10033000730B840B950B39F40A2661F0232B242BC5
:10034000252B21F408950A2609F4A140A6958FEFE4
:10035000811D811D089557FD9058440F551F59F078
:100360005F3F71F04795880F97FB991F61F09F3FA2
:1003700079F087950895121613061406551FF2CFCB
:100380004695F1DF08C0161617061806991FF1CF1B
:1003900086957105610508940895E894BB27662742
:1003A0007727CB0197F908950E94870108F48FEF12
:1003B00008950E94EC010C945D020E944F0238F0F7
:1003C0000E94560220F0952311F00C9446020C94E2
:1003D0004C0211240C94CE010E94AB0170F3959F46
:1003E000C1F3950F50E0551F629FF001729FBB272C
:1003F000F00DB11D639FAA27F00DB11DAA1F649FC8
:100400006627B00DA11D661F829F2227B00DA11D7A
:10041000621F739FB00DA11D621F839FA00D611D00
:10042000221F749F3327A00D611D231F849F600D21
:10043000211D822F762F6A2F11249F5750409AF04A
:10044000F1F088234AF0EE0FFF1FBB1F661F771FD6
:10045000881F91505040A9F79E3F510580F00C94A1
:1004600046020C94CE015F3FE4F3983ED4F38695A8
:1004700077956795B795F795E7959F5FC1F7FE2B41
:10048000880F911D9695879597F9089597F99F671D
:1004900080E870E060E008959FEF80EC089500240C
:1004A0000A941616170618060906089500240A94D9
:1004B00012161306140605060895092E0394000C5F
:1004C00011F4882352F0BB0F40F4BF2B11F460FFEE
:1004D00004C06F5F7F4F8F4F9F4F0895F894FFCFF9
:00000001FF
