:100000000C942A000C943C000C943C000C943C0092
:100010000C943C000C943C000C943C000C943C0070
:100020000C943C000C943C000C943C000C943C0060
:100030000C943C000C9457000C943C000C943C0035
:100040000C943C000C943C000C943C000C943C0040
:100050000C943C0011241FBECFE5D8E0DEBFCDBF1D
:1000600020E0A0E6B0E001C01D92A136B207E1F7A2
:100070000E943E000C9485000C940000CF93DF9307
:10008000CDB7DEB787E390E02FEFFC01208380E45B
:1000900090E0FC01108289E290E02CE0FC012083DA
:1000A0008AE290E028E9FC0120837894FFCF1F9238
:1000B0000F920FB60F9211242F938F939F93EF936C
:1000C000FF93CF93DF93CDB7DEB78CE290E0FC01D6
:1000D0008081809360002091600088E390E020950B
:1000E000FC0120838CE290E020916000FC012083E1
:1000F0000000DF91CF91FF91EF919F918F912F9110
:0E0100000F900FBE0F901F901895F894FFCF30
:00000001FF
