:100000000C942A000C943C000C943C000C943C0092
:100010000C943C000C943C000C943C000C943C0070
:100020000C943C000C943C000C9408010C943C0093
:100030000C943C000C9466000C943C000C943C0026
:100040000C94B7000C943C000C943C000C943C00C5
:100050000C943C0011241FBECFE5D8E0DEBFCDBF1D
:1000600020E0A0E6B0E001C01D92A636B207E1F79D
:100070000E943E000C942C010C940000CF93DF935F
:10008000CDB7DEB787E390E02FEFFC01208380E45B
:1000900090E0FC01108289E290E02CE0FC012083DA
:1000A0008AE290E028E9FC01208387E290E020E2E8
:1000B000FC01208386E290E02BE8FC01208389E5A7
:1000C00090E022E0FC0120837894FFCF1F920F92F2
:1000D0000FB60F9211242F933F938F939F93EF931B
:1000E000FF93CF93DF93CDB7DEB78091630082306B
:1000F00088F42CE230E080916300882F90E0F901D1
:1001000020818C599F4FFC012083809163008F5F79
:1001100080936300809163008230D8F08091640006
:100120008093600080916500882F90E0909362003A
:10013000809361001092630080916000882349F0F1
:1001400086E290E0FC01208186E290E02064FC01E0
:1001500020830000DF91CF91FF91EF919F918F91CC
:100160003F912F910F900FBE0F901F9018951F92E7
:100170000F920FB60F9211242F933F938F939F935B
:10018000EF93FF93CF93DF93CDB7DEB725E230E057
:100190008CE290E0F9012081FC01208385E290E06F
:1001A000FC01208188E390E02095FC012083809170
:1001B000600081508093600080916000882391F0FE
:1001C00020916100309162008CE590E0FC01208379
:1001D00082E590E0FC01108283E590E025E0FC01DF
:1001E000208308C082E590E0FC01108283E590E066
:1001F000FC0110820000DF91CF91FF91EF919F9160
:100200008F913F912F910F900FBE0F901F901895D7
:100210001F920F920FB60F9211242F938F939F93DB
:10022000EF93FF93CF93DF93CDB7DEB786E290E0F5
:10023000FC01208186E290E02064FC012083000024
:10024000DF91CF91FF91EF919F918F912F910F901F
:0C0250000FBE0F901F901895F894FFCF80
:00000001FF
